{
  "contractName": "Test",
  "abi": [
    {
      "constant": false,
      "inputs": [
        {
          "name": "a",
          "type": "uint256"
        }
      ],
      "name": "multiply",
      "outputs": [
        {
          "name": "d",
          "type": "uint256"
        }
      ],
      "payable": false,
      "stateMutability": "nonpayable",
      "type": "function"
    }
  ],
  "bytecode": "0x6080604052348015600f57600080fd5b5060a58061001e6000396000f3fe6080604052348015600f57600080fd5b506004361060285760003560e01c8063c6888fa114602d575b600080fd5b605660048036036020811015604157600080fd5b8101908080359060200190929190505050606c565b6040518082815260200191505060405180910390f35b600060078202905091905056fea165627a7a723058200d00a39302ffd397ff7879381f67c1bdd2191f2df8658efd8e23d18f24a4b5830029",
  "source": "//pragma solidity ^0.4.4;\npragma solidity >=0.4.21 <0.6.0;\ncontract Test {\n    function multiply(uint a )public returns(uint d) {\n        return a * 7;\n    }\n}\n",
  "sourcePath": "/Users/liqinghua/truffle/demo1/contracts/1.sol",
  "compiler": {
    "name": "solc",
    "version": "0.5.8+commit.23d335f2.Emscripten.clang"
  },
  "schemaVersion": "3.0.11",
  "updatedAt": "2019-07-16T02:47:30.400Z",
  "devdoc": {
    "methods": {}
  },
  "userdoc": {
    "methods": {}
  }
}