{
  "contractName": "Voting",
  "abi": [
    {
      "constant": true,
      "inputs": [
        {
          "name": "",
          "type": "bytes32"
        }
      ],
      "name": "votesReceived",
      "outputs": [
        {
          "name": "",
          "type": "uint8"
        }
      ],
      "payable": false,
      "stateMutability": "view",
      "type": "function"
    },
    {
      "constant": true,
      "inputs": [
        {
          "name": "",
          "type": "uint256"
        }
      ],
      "name": "candidateList",
      "outputs": [
        {
          "name": "",
          "type": "bytes32"
        }
      ],
      "payable": false,
      "stateMutability": "view",
      "type": "function"
    },
    {
      "inputs": [
        {
          "name": "candidateNames",
          "type": "bytes32[]"
        }
      ],
      "payable": false,
      "stateMutability": "nonpayable",
      "type": "constructor"
    },
    {
      "constant": true,
      "inputs": [
        {
          "name": "candidate",
          "type": "bytes32"
        }
      ],
      "name": "totalVotesFor",
      "outputs": [
        {
          "name": "",
          "type": "uint8"
        }
      ],
      "payable": false,
      "stateMutability": "view",
      "type": "function"
    },
    {
      "constant": false,
      "inputs": [
        {
          "name": "candidate",
          "type": "bytes32"
        }
      ],
      "name": "voteForCandidate",
      "outputs": [],
      "payable": false,
      "stateMutability": "nonpayable",
      "type": "function"
    },
    {
      "constant": true,
      "inputs": [
        {
          "name": "candidate",
          "type": "bytes32"
        }
      ],
      "name": "validCandidate",
      "outputs": [
        {
          "name": "",
          "type": "bool"
        }
      ],
      "payable": false,
      "stateMutability": "view",
      "type": "function"
    }
  ],
  "bytecode": "0x608060405234801561001057600080fd5b506040516104173803806104178339810180604052602081101561003357600080fd5b81019080805164010000000081111561004b57600080fd5b8281019050602081018481111561006157600080fd5b815185602082028301116401000000008211171561007e57600080fd5b5050929190505050806001908051906020019061009c9291906100a3565b5050610115565b8280548282559060005260206000209081019282156100df579160200282015b828111156100de5782518255916020019190600101906100c3565b5b5090506100ec91906100f0565b5090565b61011291905b8082111561010e5760008160009055506001016100f6565b5090565b90565b6102f3806101246000396000f3fe608060405234801561001057600080fd5b50600436106100575760003560e01c80632f265cf71461005c578063392e6678146100a45780637021939f146100ea578063b13c744b14610132578063cc9ab26714610174575b600080fd5b6100886004803603602081101561007257600080fd5b81019080803590602001909291905050506101a2565b604051808260ff1660ff16815260200191505060405180910390f35b6100d0600480360360208110156100ba57600080fd5b81019080803590602001909291905050506101dd565b604051808215151515815260200191505060405180910390f35b6101166004803603602081101561010057600080fd5b8101908080359060200190929190505050610233565b604051808260ff1660ff16815260200191505060405180910390f35b61015e6004803603602081101561014857600080fd5b8101908080359060200190929190505050610253565b6040518082815260200191505060405180910390f35b6101a06004803603602081101561018a57600080fd5b8101908080359060200190929190505050610274565b005b60006101ad826101dd565b6101b657600080fd5b60008083815260200190815260200160002060009054906101000a900460ff169050919050565b600080600090505b60018054905081101561022857826001828154811061020057fe5b9060005260206000200154141561021b57600191505061022e565b80806001019150506101e5565b50600090505b919050565b60006020528060005260406000206000915054906101000a900460ff1681565b6001818154811061026057fe5b906000526020600020016000915090505481565b61027d816101dd565b61028657600080fd5b600160008083815260200190815260200160002060008282829054906101000a900460ff160192506101000a81548160ff021916908360ff1602179055505056fea165627a7a723058206583d6625379a5c3f3b8963aa3619ce10cd2b5e17e2920b1976b3ec347475e330029",
  "source": "pragma solidity >=0.4.0 <0.7.0;\n\n// 必须指明编译这段代码的编译器版本\ncontract Voting {\n  /* 下面这个 mapping 域相当于一个关联数组或哈希。\n      mapping 的键是候选项的名字，类型为 bytes32；\n      值的类型是无符号整型，用于存储得票数。\n  */\n  mapping (bytes32 => uint8) public votesReceived;\n  /* Solidity（还）不允许给构造器传入字符串数组。\n  所以我们用 bytes32 数组存储候选项\n  */\n  bytes32[] public candidateList;\n  /* 这就是把合约部署到区块链上时会执行一次的构造器。\n  在部署合约时，我们会传入一个包含候选项的数组。\n  */\n  // function Voting(bytes32[] candidateNames) public {\n  constructor (bytes32[] memory candidateNames) public { \n    candidateList = candidateNames;\n  }\n  // 这个函数用于返回指定候选项的总票数，其参数即为指定候选项\n  function totalVotesFor(bytes32 candidate) view public returns (uint8) {\n    require(validCandidate(candidate));\n    return votesReceived[candidate];\n  }\n  // 这个函数用于将指定候选项的票数加一\n  // 这相当于实现了投票功能\n  function voteForCandidate(bytes32 candidate) public {\n    require(validCandidate(candidate));\n    votesReceived[candidate] += 1;\n  }\n  function validCandidate(bytes32 candidate) view public returns (bool) {\n    for(uint i = 0; i < candidateList.length; i++) {\n      if (candidateList[i] == candidate) {\n        return true;\n      }\n    }\n    return false;\n  }\n}\n",
  "sourcePath": "/Users/liqinghua/truffle/demo1/contracts/vote.sol",
  "compiler": {
    "name": "solc",
    "version": "0.5.8+commit.23d335f2.Emscripten.clang"
  },
  "schemaVersion": "3.0.11",
  "updatedAt": "2019-07-18T09:36:43.222Z",
  "devdoc": {
    "methods": {}
  },
  "userdoc": {
    "methods": {}
  }
}